:106000000020001015610000FD600000016100002B
:106010000000000000000000000000000000000080
:10602000000000000000000000000000056100000A
:106030000000000000000000096100000D61000088
:10604000711901001161000011610000116100006F
:106050001161000011610000116100001161000078
:10606000116100001161000000000000000000004C
:10607000000000000000000011610000116100003C
:106080001161000011610000657D00004D8000007D
:1060900011610000658000000000000000000000A9
:1060A0001161000011610000116100001161000028
:1060B00000000000000000000000000000000000E0
:1060C000485E0100000000105C010000485E010015
:1060D0000000002000000000485E01000040002099
:1060E000000000005C010010A81600000000002065
:1060F000000000000040002000000000FEE7C04655
:10610000FEE7C046FEE7C046FEE7C046FEE7C046E3
:10611000FEE7C0461F4BC0221968120570B50A433E
:106120001D4C1E4D1A60AC420ED2206861680C34C2
:10613000231F1A680023002AF5D01E585E5004332E
:106140009A42FAD8AC42F0D3154A944213D2231C97
:106150000833D51DED1AED08ED005D1900216268C8
:1061600020680023002A03D0195004339A42FBD838
:106170000834AC42F3D10B4B0B4A1B681B691968FE
:1061800011605A68094B1A600BF08CFB0CF005F893
:10619000FEE7C04680800440C0600000E46000006C
:1061A000FC600000F81FFF1FAC0E0010A80E0010CE
:1061B00010B50023002A04D01C585C5004339A42C6
:1061C000FAD810BD00230022002903D01A5004334E
:1061D0009942FBD87047C046FFFFFFFFFFFFFFFF5C
:1061E000FFFFFFFFFFFFFFFFFFFFFFFFFFFFFFFFBF
:1061F000FFFFFFFFFFFFFFFFFFFFFFFFFFFFFFFFAF
:10620000FFFFFFFFFFFFFFFFFFFFFFFFFFFFFFFF9E
:10621000FFFFFFFFFFFFFFFFFFFFFFFFFFFFFFFF8E
:10622000FFFFFFFFFFFFFFFFFFFFFFFFFFFFFFFF7E
:10623000FFFFFFFFFFFFFFFFFFFFFFFFFFFFFFFF6E
:10624000FFFFFFFFFFFFFFFFFFFFFFFFFFFFFFFF5E
:10625000FFFFFFFFFFFFFFFFFFFFFFFFFFFFFFFF4E
:10626000FFFFFFFFFFFFFFFFFFFFFFFFFFFFFFFF3E
:10627000FFFFFFFFFFFFFFFFFFFFFFFFFFFFFFFF2E
:10628000FFFFFFFFFFFFFFFFFFFFFFFFFFFFFFFF1E
:10629000FFFFFFFFFFFFFFFFFFFFFFFFFFFFFFFF0E
:1062A000FFFFFFFFFFFFFFFFFFFFFFFFFFFFFFFFFE
:1062B000FFFFFFFFFFFFFFFFFFFFFFFFFFFFFFFFEE
:1062C000FFFFFFFFFFFFFFFFFFFFFFFFFFFFFFFFDE
:1062D000FFFFFFFFFFFFFFFFFFFFFFFFFFFFFFFFCE
:1062E000FFFFFFFFFFFFFFFFFFFFFFFFFFFFFFFFBE
:1062F000FFFFFFFFFFFFFFFFFFFFFFFFFFFFFFFFAE
:1063000038B500F01DFC002812D00A4C2388002B61
:106310000ED0094D2868012101F040FF238828682C
:10632000013B9BB22380238801302860002BF2D1EF
:1063300038BDC046720D0010740D001010B582B04B
:1063400005F056F8041C00F089FB002801D102B0CA
:1063500010BDC220800003F027FC1C2803D0222897
:106360000AD01728F3D10D4B00201A880C4B92B29B
:10637000196804F05BF8EAE7084B201C1A88084B00
:1063800033301968231C047A407A92B20002204309
:1063900000903533002004F023FAD8E7680D001090
:1063A0006C0D001070B582B000F052FC002801D1D5
:1063B00002B070BD3A236A4668460121137001F0AD
:1063C000EDFE1A4C2388002B21D0194D0F262B6887
:1063D0001878000900F062F86B46187001216846D1
:1063E00001F0DCFE2A681078304000F057F86B4668
:1063F00018700121684601F0D1FE22882B68013A0D
:1064000092B22280228801332B60002AE0D16A46B2
:106410000D2368460121137001F0C0FE0A236A466D
:1064200068460121137001F0B9FEC1E7600C00104D
:10643000640C001010B582B004F0DAFF041C00F008
:1064400009F9002801D102B010BDC220800003F07C
:10645000ABFB1C2803D022280AD01728F3D10D4B00
:1064600000201A880C4B92B2196803F0DFFFEAE7AC
:10647000084B201C1A88084B33301968231C047AF7
:10648000407A92B20002204300903533002004F09D
:10649000A7F9D8E7680D00106C0D0010031E092B3A
:1064A00008D91A1C0A3A3020052A00D97047373318
:1064B000D8B2FBE73033D8B2F8E7C046F0B55F4654
:1064C00056464D464446F0B44A1E83B092B2002967
:1064D00000D1B7E00324434223401C1C8B4200D967
:1064E0009DE0A4B20D1E0A2D00D99EE08A1E441C18
:1064F000037892B2012D49D94278841C9B18CA1E98
:10650000DBB292B2022D41D98278C41C9B180A1FBB
:10651000DBB292B2032D39D9C278041D9B184A1FF1
:10652000DBB292B2042D31D90279441D9B188A1F27
:10653000DBB292B2052D29D94279841D9B18CA1F5E
:10654000DBB292B2062D21D98279C41D9B180A1C98
:10655000083ADBB292B2072D18D9C27901349B18E0
:106560000A1C093ADBB292B2082D0FD9027A013423
:106570009B180A1C0A3ADBB292B2092D06D9427A5C
:1065800001349B180A1C0B3ADBB292B2A9423DD0EF
:10659000491B89B28B46890888468E0029D040194C
:1065A0002A4F9C46002100250192031C01CB01319A
:1065B000021C3A4092462A1C3A409146244A4540E1
:1065C000D144154088B24A4655408045EED828044B
:1065D000000E281863462902C318019A090EDBB27F
:1065E0005B182D0E5B19921BDBB2A41992B2B34556
:1065F0000CD021785B18DBB2002A07D061785B18D9
:10660000DBB2012A02D0A2789B18DBB25B42D8B27F
:1066100003B03CBC90469946A246AB46F0BD0C1C6C
:10662000A4B20D1E0A2D00D860E7002C0CD1002565
:10663000491B89B28B468908041C002388468E00BA
:10664000ADD1D6E70020E3E7251C4FE77F7F7F7FB2
:1066500080808080F0B55F4656464D464446F0B493
:106660009E4985B00B88002B00D133E100239C4D5F
:106670009C4F012617E082181478E4B2A4463C68C7
:10668000E0180078C0B2041C303CE4B2092C00D9F8
:1066900005E16046204381464C46147001330A8868
:1066A0009BB293421DD25A0828681E42E3D13C682F
:1066B0008018E21812788046D2B2101C3038C0B26E
:1066C000092800D8E8E041246442A418F020052CF1
:1066D00000D8DFE04246107001330A889BB2934233
:1066E000E1D32A680D886D08681E80B2002D00D1A4
:1066F000A8E00324534223401C1CAB4200D9DDE038
:10670000A4B22E1E0A2E00D9DEE0A81E541C137857
:1067100080B2012E49D95078941C1B18E81EDBB2B8
:1067200080B2022E41D99078D41C1B18281FDBB2EE
:1067300080B2032E39D9D078141D1B18681FDBB224
:1067400080B2042E31D91079541D1B18A81FDBB25A
:1067500080B2052E29D95079941D1B18E81FDBB291
:1067600080B2062E21D99079D41D1B18281C083818
:10677000DBB280B2072E18D9D07901341B18281C3F
:106780000938DBB280B2082E0FD9107A01341B18F9
:10679000281C0A38DBB280B2092E06D9507A01349F
:1067A0001B18281C0B38DBB280B2B54247D0AD1B9A
:1067B000ADB20395AD08AB46AD00AC4632D0B618CD
:1067C000B146494E9A46B0465E464B468346002542
:1067D000002701949146301C40CB42463240029241
:1067E00042463A40029C7740404E01353740A2185D
:1067F000AEB25740B042EFD83E04360EBE195346F3
:106800003D02F3182D0EDBB25B19019C58463F0E7A
:106810006546039EDB19401B4A46DBB2644480B2E6
:1068200066450CD025785B19DBB2002807D0657867
:106830005B19DBB2012802D0A0781B18DBB2002064
:10684000002B20D11478901F294A2A4B12780988EE
:1068500018600270284A18681278490842701A684D
:10686000002090701E688D1EADB2F0706A1C1B680F
:106870001012C0B2E4B2D2B218715A719C711F4B9F
:1068800005311980012005B03CBC90469946A246CE
:10689000AB46F0BD101C37380001C0B21AE7FF2428
:1068A000A146412464422418052C00D9F4E6041CB6
:1068B000373C60460443E4B2A146EDE62C1CA4B28A
:1068C0002E1E0A2E00D820E7002C05D10026141C0D
:1068D00000236CE7024D04E7261C16E7600C00104D
:1068E000640C0010D00000107F7F7F7F808080804C
:1068F000710D00106C0D0010700D0010680D00106F
:1069000010B582B0002468460121047001F03AFC01
:1069100000280FDD194A1378012B16D0002B0BD05D
:10692000022B07D169460B780A2B03D1144B0121A6
:106930001970147002B010BD12490B8069460B78B3
:106940003A2BF7D101231370F4E70E4B1988FF2976
:106950000DD8684601780D290CD00B4A10681A88AA
:1069600092B2541CA4B282181C801170E2E7032377
:106970001370DFE702231370DCE7C0465C010010F0
:10698000620C0010600C0010D000001070B54E1E9C
:10699000B6B2002911D08619094D0A4C031C0136E4
:1069A000FF21FF201A7801334A40A95C4140A05CD6
:1069B000B342F7D10002084370BD0348FCE7C0466C
:1069C00050500100504F0100FFFF000008B5962312
:1069D0009B01984233D01DD89623DB00984231D0DA
:1069E0000DD896230A225B00984204D096239B0080
:1069F000984200D11522101C00F0A6F908BD96237C
:106A000056221B019842F6D096235B019842F2D1A0
:106A1000AB22F0E7E1231B0298420ED005D8962363
:106A2000DB01984210D10B4AE5E7E1235B02984273
:106A300003D0E1239B029842DDD1074ADBE7AB227A
:106A40005200D8E72B22D6E796231B029842D2D1D8
:106A5000014AD0E7AE0200005A05000030B5134BE2
:106A6000134D981F2860134D134A2D781C781288F7
:106A70000570124892B20578D11E581F057089B270
:106A80001D1F002028700131DD1E28700D12EDB28F
:106A9000981E0570E4B2581EC9B2017004321C7011
:106AA000074B92B201201A8030BDC046680C00101E
:106AB0006C0D0010710D00105E010010700D0010C3
:106AC000680D001000B583B06846012101F05AFB43
:106AD00000280BDD174A1378012B17D0002B03D0A9
:106AE000022B05D0032B01D100F058F903B000BDF3
:106AF000114B1988FF291AD81A8892B2511C89B2F1
:106B000019806B4619780D4B9954EDE70A4B00211B
:106B10001980198889B2481C80B218806B46187891
:106B2000064B58540223137000F038F9DEE70323B4
:106B30001370D9E7790D00105E010010680C001089
:106B4000F0B54F4680B486B004F052FC071C00201C
:106B500003F032F9051E04D1002006B004BC9146B2
:106B6000F0BDC220800003F01FF81C285CD0222852
:106B700030D0172858D0314CA378E2781B02134349
:106B8000EAD1A37921782E4AA3714B461170A01D3A
:106B90006178063B2B4C2C4A9BB2238011702188D4
:106BA0002A4D89B22860FFF7F1FE23889BB25A1C58
:106BB00092B222802A68D318C2B21A7023882A6837
:106BC0009BB2591C000AC0B289B2D3182180187038
:106BD0000120C2E7194C04AE02AA331C0092211C0A
:106BE0002A1C002003F0AEFE391C80B2042281462C
:106BF0003531301C0CF05CF93D1C6A463335138985
:106C0000002805D16A7A297A12020A439A42B3D03F
:106C10003278AA707278EA70B2782A71F2782B72A0
:106C20001B0A6A716B72A7E7044C0020211C2A1C06
:106C300003F0F0FC80B281469EE7C0466001001080
:106C4000710D0010720D0010700D0010740D001009
:106C5000F0B54F4680B486B004F0CAFB071C002094
:106C600003F0AAF8051E04D1002006B004BC91462A
:106C7000F0BDC220800002F097FF1C2851D02228CE
:106C800025D017284DD02B4CA378E2781B02134354
:106C9000EAD1A3792178284AA3714B461170A01D2F
:106CA0006178063B254C264A9BB2238011702188CF
:106CB000244D89B22860FFF701FC23882A689BB223
:106CC000591C89B2D318218018700120CDE7194CC6
:106CD00004AE02AA331C0092211C2A1C002003F0DF
:106CE00031FE391C80B2042281463531301C0CF053
:106CF000DFF83D1C6A4633351389002805D16A7ACE
:106D0000297A12020A439A42BED03278AA70727867
:106D1000EA70B2782A71F2782B721B0A6A716B7270
:106D2000B2E7044C0020211C2A1C03F073FC80B243
:106D30008146A9E760010010710D0010600C001081
:106D4000700D0010640C001070B5124C051C201C56
:106D50000BF04AF90AF038FF061C201C0BF064F90E
:106D6000626908231A436261291CE360301C0AF03F
:106D7000A1FCE0616269102313436361626801232F
:106D8000134363608022044BC021120349005A5010
:106D90001A6070BD0080014000E100E010B5084CB1
:106DA000201C0BF041F962680123134363608022C9
:106DB000044BC021120349005A501A6010BDC0464E
:106DC0000080014000E100E0094B10B51A78022A6A
:106DD00002D1084A01211170074901224868802424
:106DE0009043486005482403802144501A7010BD28
:106DF000790D0010780D00100080014000E100E0E6
:106E000010B586B004F0F4FA041C6846063002F0AF
:106E10009BFE68460E3002F0A3FE68460A3002F080
:106E2000ABFE6846123002F0B3FE211C68462131E9
:106E3000062204F0D1FB201C6946273006310422CB
:106E400004F0CEFB201C69462B300E31042204F0E6
:106E5000C7FB201C69462F300A31042204F0C0FB16
:106E6000201C694604226830123104F0B9FB662305
:106E7000E35C69465A4253410222D31A00206A4613
:106E8000937503F0BDFF06B010BDC0467047C04605
:106E900070B586B002AD002304AC0A212A1C238001
:106EA000061C03F0B7FE2B78172B3DD0222B0ED0FB
:106EB0002388002B09D0314A314832490BF030F990
:106EC000314B2288186812181A6006B070BD221C57
:106ED000301C092103F09EFE22888023DB009A42A9
:106EE00048D923802749C8680A694968821A8A1ADA
:106EF0009A42EADB6D46123580222049D20005AB6A
:106F00000095301C03F01EFD208004F071FA2B88E0
:106F10001E4A333013801E4A03721B0A43721068E4
:106F2000238819181160C4E7221C301C092103F0C2
:106F300071FE22888023DB009A4217D923801149F1
:106F4000C8680A694968821A8A1A9A42BDDB802297
:106F50000A49D200301C03F05DFB0D4A83B2116870
:106F60000004000C401823801060A2E7002AACD077
:106F7000131CE4E7002AA8D0131CB3E7B4120010D6
:106F800000800040840D001080020010D40000102A
:106F900070020010F0B544465F4656464D46F0B4C8
:106FA00091B0804604F024FA9F4C071CE2682369E4
:106FB0009A4203D09D4B1E68012E06D911B03CBCED
:106FC00090469946A246AB46F0BD3320C019017CDD
:106FD00081460B1C5A1E9341DBB2E2689A46236934
:106FE0000291D31A99420CDC5246002A00D1C7E024
:106FF000029D022000220595042106258446049264
:1070000008E08023DB0003220593012305210725E7
:10701000944604934846C27B837B1202134341D1BA
:10702000834D48460695407D2B780890002800D077
:10703000F3E05046002800D09BE0012E06D1E26824
:107040002369D31A7B4A12689A42B7D10EAA4046E6
:107050000A2103F0DFFD0EAA1378222B01D0172B93
:10706000ACD1754D211C2A1C059B74480BF077F898
:10707000734B84B20004060C18680EA932181A600B
:10708000704B00221A600B78222B00D1AEE0172B38
:1070900000D19BE06C4A00231360069D6B4A13608D
:1070A0002B708BE7022352461A43614B924606939C
:1070B0001B78002B02D16046291C04904A46527D61
:1070C0000892002A55D0049B52460D920C930491CD
:1070D00055460423A0681D43AA46012849D1E26809
:1070E00008992369D31A994243D85B1A01330B9349
:1070F000002B3ED03A1C44322369256860680A920E
:1071000000210022B34609930138079103922E1CF7
:10711000BC46039D099F021CEB191A406546442793
:10712000B15CEA5D914235D108990A9ACD18D71A17
:1071300005E01A1C0240B15CFA5C91422AD101338D
:10714000AB42F6D1089D039867462B185E46002B8C
:107150000FD00D9901220A4226D14D46AA7DD218A0
:107160000592151CE2682369D31A9D4201DC0C9834
:107170000490049B51460B40534500D05DE71DE74A
:1071800002239C468023DB00002004210625059372
:1071900004903FE7079B0B9D013307930393AB429A
:1071A000B7D167465E46E4E70C98024205D04946EF
:1071B0008A7D9A180592151CD4E74D46AA7D02983F
:1071C000D31898420FDD05931D1CCBE74046291CC0
:1071D000221C03F02BF9864200D0EFE61C4B1F68FF
:1071E000F6191E6056E70C990491C2E7391C353137
:1071F00004220FA80AF0DAFF4B461A7A5B7A291CA0
:107200001B021343009340460FAB221C03F0E8FA25
:107210000F4B1D6876191E603CE7049D53460D9385
:107220000C95049154E7C046980D00108C02001094
:10723000A802001088020010B40E00100080004068
:10724000900200106C020010AC0200109C020010B2
:1072500068020010F0B55F4656464D464446F0B40D
:107260008FB0041C04F0C4F8051C04F0C1F80A2116
:10727000061C08AA201C03F0CDFC331C9E331F788B
:10728000002F00D189E0CE4F3B68042B6ED8CD4A49
:107290009B00D3589F4604F0ABF8CB4984460B784B
:1072A0000191022B00D1BAE2C84BC94A9868116813
:1072B000012800D0E1E101390291D96888461969B5
:1072C0004046411A0298081A8346012800D8D4E1A2
:1072D0009F218846604640440078029903901869CF
:1072E00000940918586804911968814601208A465B
:1072F00040425946019C814409180020069193465A
:1073000051464A4605908046A1469A46049B039CF6
:10731000181C4044131C0340CB5CA34200D0B9E3CB
:10732000013010400C5CA0236046C05C844200D059
:10733000B0E302984A460230804440460192009CE5
:1073400053465A46002800D197E1A2490868894669
:10735000411C8C46414500D091E103233B609E4B8C
:10736000002119604F4663463B6013602A1C33328C
:107370005378012B25D0002B33D0022B4ED108A8F7
:107380000378222B00D141E100235370002101201A
:107390000AF0C8FA08A90B7848E008AA1378172B56
:1073A000E4D0222BE2D03323EB5C022BDED08748E3
:1073B00000F0E4FE894B2A1C1F6033325378012B06
:1073C000D9D108AD2B78172B00D1C3E0002555701B
:1073D000012000210AF0A6FA814B08AF1D603B781E
:1073E00024E008AF3B78222B00D10DE1172B1DD1F3
:1073F000012353700120012152360AF093FAB37A27
:10740000002B00D155E23323EB5C022B00D14BE281
:10741000744B012208A91A700B7807E000235370FF
:10742000012000210AF07EFA08AA1378222B41D805
:107430006D4A9B00D3589F466A4F3B78002B00D182
:107440009DE003F0D5FF00266B465C301E8680462B
:107450000CF02EFD0AAD81460A21201C2A1C03F0E7
:10746000D9FB2B78172B25D109210CAA201C03F05E
:10747000D1FB5E4A6D462B8E11885D4D994200D13D
:1074800041E32E60138049468EB29E4212D8594A7B
:10749000201C111C9246321C03F0BCF86B4680B2D3
:1074A0001886864200D139E3201C02F041FF0023F8
:1074B0002B603B700FB03CBC90469946A246AB4651
:1074C000F0BD03F095FF3323C35C032BF2D8201CDF
:1074D00002F02EFF201C02F00DFEEBE703F088FF08
:1074E0003323C35C022B00D192E1032B1AD0002B73
:1074F000E0D117E003F07CFF011C051C061C3531B0
:107500000CA804220AF052FE3323EB5C3336012B25
:1075100000D18BE1002B00D1A4E1022B00D189E145
:10752000032BC7D1201C02F0E5FDC3E703F060FF89
:107530003323C35C022B00D84CE1032BBAD1333088
:10754000C279837912021A43201C0221012302F01E
:10755000E9FCAFE703F04CFF051C03F049FF264BA5
:10756000061C1A78002A03D0244900220A601A70E7
:107570003323EB5C022BD3D8002B00D05CE7204BED
:107580001A78002A00D00CE101221A70331CA233B1
:107590001B78002B00D128E1A3363478002C4CD086
:1075A000FFF7AEF9174B1A78012A00D183E20020C9
:1075B00002F002FC002800D17CE7FEF7F3FE79E739
:1075C0008C02001050510100CC020010980D0010E8
:1075D0006C02001078020010940200108402001067
:1075E0007C020010CD0200106451010074020010F2
:1075F000C8020010B4120010B8020010B40200104B
:10760000C0020010620C00100223537003F0F0FE61
:10761000051C03F0EDFE3323EB5C022B00D881E761
:10762000032B00D046E7031CA2331B78002B00D1AC
:10763000E7E0A3300478002CB2D1FFF743FAB84B4F
:107640001A78012A00D132E2002002F0B5FB0028AE
:1076500000D12FE7FEF754FE2CE703F0C9FEB14935
:1076600084460B780191022B00D1D8E0AE4BAF4A93
:1076700099681068012900D16AE1AD4A1068DA689A
:107680001B69D31A834200DC70E6AA4A0023136008
:107690000198A94A3B601360037067E603F0A8FEF7
:1076A000A24A8346136898469F4B9868012800D1E8
:1076B00002E19F4A00211160D9681A69891A9F4A1C
:1076C0001160DA681B69D31A9A4A1068834200D1A4
:1076D0004CE600231360984A3B601360914A137094
:1076E00044E608A80078804603F082FE8D4A824670
:1076F00011788946022900D1C4E08B4BDF681969F3
:10770000781A8C4F396888425DD08B490020086018
:107710001070D9681A6981468A1A3A604246172A57
:1077200000D123E6222A00D120E633225046825C93
:10773000022A00D11AE6181C00F020FD49463960E3
:1077400014E603F055FE774980460B780191022B31
:1077500000D172E1744BD8681A69801A744A1268B1
:10776000904214DC734A10688446D8681B69C31AB7
:107770009C4506D00023136001996F4A3B6013605B
:107780000B706F4F3B78002B00D193E6EEE56A4912
:1077900000200860674A01993860106008708446CC
:1077A000E3E7022A00D0F1E60CAF00220F20391CDB
:1077B0001A7003F07DFC3B78002B00D0E6E6201C1D
:1077C00002F0B6FDE2E64B46002B00D0CEE50123E9
:1077D0001370CBE53330C279837912021A43201C2F
:1077E0000121012302F09EFB64E656490A78002A33
:1077F00053D13335EB7AAA7A1B02134301D001230C
:107800000B70201CFFF744FB201CFFF7C3FB51E665
:10781000454BDA681B699A4200D083E64AE6454A3E
:1078200000231360019A3B6013709FE5201C02F057
:107830009FFC3FE63C4BDA681B699A4200D15BE152
:10784000414D2B78002B09D1727A337A12021A43F8
:10785000201C0CA902F0F0FC01232B703B4B0122F1
:107860001A6027E6384D2B78002B00D022E6727A7A
:10787000337A12021A43201C0CA902F0DDFC01230A
:107880002B7017E601233B6000231370264BDA6848
:107890001B69D21A274B1A6068E5022AB1D1201C55
:1078A0000B7002F045FDACE7284B1B68002B00D1A4
:1078B000AEE508A80378B9E5D9681869081A414601
:1078C000411A894600D1F4E6186919688246586859
:1078D000C244013803910290011C504601400398B4
:1078E000415C9F20844658466044007884460020CE
:1078F0008346614500D0E3E0414601310C485944DC
:107900000160002900D1D7E611600223094A3B60DB
:1079100000231360084A1360024B01221A7025E508
:10792000780D0010CC020010980D00106C020010B1
:1079300078020010840200109402001088020010E7
:10794000B00E0010B0020010B80200107C0200104F
:1079500002380390D868804618694146081A03998E
:10796000411A8A46022900D887E69F208046614650
:1079700041440978039805911969009540185968A0
:10798000049088461868012149428146884450463F
:107990000021023806918B4601990790201C64460D
:1079A0009C4692464B464246E14688468446049DA4
:1079B000111C281C58440140595C059DA9422FD137
:1079C000411C1140595CA0250291615D029D8D42D0
:1079D00026D102301040A125185C615D88421FD17C
:1079E0000398644603308446DC4441466046009D6B
:1079F00001914B465246002800D13EE64C490868AA
:107A00008946411C8846614500D038E6042139602A
:107A1000484900204746086048460760176036E737
:107A2000069D079901350695AB468D42BFD1434669
:107A30000193009D64464B461FE63F4B00221A60AF
:107A40003E4B201C91463A600A701A6002F070FCAE
:107A50003B4800F093FB3B4F381C00F08FFB391C78
:107A6000394A0D2339480AF05BFB391C384A072391
:107A700036480AF055FB374F484638700021012040
:107A800009F050FF4346333349465970201C02F039
:107A900031FB77E6059B06980133059398468342B0
:107AA00000D033E44A46009C01925346E5E51C7041
:107AB000FEF744FCC8E500221A70FEF7BBFC76E531
:107AC0008C4500D118E7101C6246002104928446C0
:107AD00001318B46494500D1EBE552468818029AA0
:107AE0001040039A105C049A824201D1624603E777
:107AF0009042EDD16246FFE6201C02F039FB164BA6
:107B000000221A60D6E42868042800D8BBE4201CB0
:107B100002F00EFC00232E603B70CBE4484682B29C
:107B2000514640460BF0C4F9002800D1BFE4BBE445
:107B30007802001094020010840200106C02001001
:107B4000980D0010840D0010F051010000800040DD
:107B500000520100B00E00107C02001000B540235E
:107B60008BB0012815D006930B4B07913E20FA21CC
:107B7000059089001868089209F09CFD074B099050
:107B800001A905A89847019A50425041C0B20BB0D4
:107B900000BD80239B00E6E7B4160010F11FFF1F15
:107BA00000B540238BB0012815D006930B4B0791ED
:107BB0003D20FA21059089001868089209F07AFDA5
:107BC000074B099001A905A89847019A50425041D6
:107BD000C0B20BB000BD80239B00E6E7B4160010D6
:107BE000F11FFF1FA0230022DB059A707047C046DB
:107BF000A0230122DB059A707047C04608B5031C1C
:107C00000A1C0248191C0AF0FBF808BD00000440D9
:107C100010B582B06C460734211C012202480AF0DC
:107C2000EFF8207802B010BD0000044008B5031C36
:107C30000A1C0248191C0AF09DF808BD0000044007
:107C400000B583B0694607310870012202480AF086
:107C500091F803B000BDC0460000044010B51E4CB2
:107C60000021201C0622822309F0C0FF201C0021D5
:107C70000822812309F0BAFF201C00210922812358
:107C800009F0B4FF201C00210222102309F0AEFFEE
:107C9000A0228023D2059B01D05804210143D1505A
:107CA000D05880210D4CC9030143D150201C0AF04B
:107CB0003FF92368FF229343072213432360201CCC
:107CC00001210AF0F9F8201C05490AF0FFF8626862
:107CD00002231343636010BD0040044000000440D1
:107CE0008096980030B585B0102216496846A024C9
:107CF0000AF05CFAE40500230125FA20A570800053
:107D0000A37500F099F910481049A57503F03AF8E9
:107D10000F48104903F048F80F48104903F05AF88B
:107D20000120694603F0C4F9013000D1FEE70C4898
:107D300000F082F9D8204001032101F065FF05B071
:107D400030BDC04608520100E57B0000F17B000019
:107D5000117C0000417C0000FD7B00002D7C0000B8
:107D600010270000F0B5474680B403F041FB041C27
:107D700003F03EFB7F4B02221968061C0A4200D02A
:107D80001A607D4D33342B6801332B607B4B1A789E
:107D9000002A04D1E27BA17B12020A4331D1784A46
:107DA0001378002B28D1774B1968607B277B000262
:107DB0003843884202D8002111701960724F3B7815
:107DC000002B00D077E0714A1378012B00D187E0B7
:107DD0006F4B1868F421FF31884203D902211170DA
:107DE00000221A60FA212868890009F063FC0F1E3E
:107DF0001BD004BC9046F0BD624B1968013119607C
:107E0000D3E76449644FC8680969411A88467ED13E
:107E10006249002008604046386008688242BED847
:107E200001221A7000230B60B9E7002009F08CFDD5
:107E30002F605B4D52362B6801332B60337D002B56
:107E40006ED1737D002B70D1564A1378012B72D0FE
:107E5000E37AA17A1B020B4307D053490868834297
:107E600003D80223137000230B60504B1B78002BA8
:107E700003D04F4B1A6801321A6028683C2109F080
:107E800019FC002906D12960737D002B02D0494BD3
:107E900001221A70484C2378012BAAD1474D0521A5
:107EA0002E680136301C09F005FC002954D102234C
:107EB000296023709DE742490B68884601330B60B7
:107EC00009F064FD002810D000233B7047463B605A
:107ED0003C4B01221A602D4A1378012B00D077E722
:107EE0002B4B18680130186074E743461A68364B0C
:107EF0009A4200D867E703F07FFA03F05DFBBFF317
:107F00004F8F324A324BDA60BFF34F8FFEE739684A
:107F1000414500D07CE721490868013008607CE7D2
:107F200001F00AFE737D002B8ED000F035FF1D4A54
:107F30001378012B8CD1274B1968274B1868814285
:107F40000CD0264807682648BC461960164B674681
:107F50000021076019607BE72E604AE71F48076829
:107F60001F48BC460768BC45EFD10F4B196801316B
:107F700019606DE700400140C4020010A802001023
:107F8000B8020010B4020010580C0010CC0200100F
:107F900094020010980D0010AC0200109C0200101A
:107FA000A0020010B002001098020010CD020010D4
:107FB000C802001054010010C0020010BC020010E2
:107FC000A402001000E100E0871300000400FA059D
:107FD00000ED00E070020010800D0010680200103B
:107FE0007C0D001038B5124C201C09F0FDFF09F083
:107FF000EBFD051C201C0AF017F8626908231343E7
:10800000FA216361281C890009F054FBE061626970
:10801000102313436361626801231343636080226A
:10802000044BC021D20249005A501A6038BDC046E4
:108030000040014000E100E082B00190019B5A1E27
:108040000192002BFAD102B07047C04608B5044B2C
:10805000022219680A4202D01A60FEF7B5FE08BD76
:108060000080014008B503480349044A0AF07EF83D
:1080700008BDC04600800040980D0010840D00101F
:10808000F8B541780378090219438378041C1B046E
:108090001943C37837481B0619430AF004F82379BB
:1080A000072B57D0082B35D11F270F261B200B215C
:1080B00007250322A379012B04D0022B2DD1381CD4
:1080C000311C2A1C6379012B2CD0002B02D0022BEF
:1080D0002AD1021C274D2848EA600021072281236B
:1080E00009F084FD812324480021112209F07EFD3E
:1080F000E379012B35D0002B23D0022B17D0032B93
:1081000007D12B69C22293432B61EA6C31231343BD
:10811000EB64F8BD08232371C6E70123A3716379DB
:10812000012BD2D10A1CD5E700236371D2E71122BB
:1081300080231148002109F059FDA0230022DB050E
:108140005A742B69C22293432B61EB6C3122934307
:10815000EB64DEE71E270E261A200A2106250222DE
:10816000A8E7EB6C31229343EB642A69C0231343E5
:108170002B61CEE7008000400040044000230361F3
:10818000C360704708B5021C0B1C0248024909F085
:10819000E6FF08BD00800040980D001008B5021CE5
:1081A0000B1C0248024909F0BBFF08BD00800040DB
:1081B000840D0010F8B503F01BF9041C504809F0B9
:1081C0003FFF4A23E35C4A3461784D480902194372
:1081D000A3781B041943E3781B06194309F063FFD6
:1081E0002379072B00D17AE0082B58D11F270F26BF
:1081F0001B200B2107250322A379012B04D0022B7E
:1082000050D1381C311C2A1C6379012B4FD0002B14
:1082100002D0022B4DD1021C394D3A48EA600021B0
:108220000722812309F0E2FC812336480021112234
:1082300009F0DCFCE379012B58D0002B46D0022B4F
:108240003AD0032B07D12B69C22293432B61EA6CEE
:1082500031231343EB642A4CC123A360802323639F
:1082600029490122DB00294809F0C6FC802328495E
:108270000122DB00274809F0BFFC62680523134395
:108280006360C522244B9200985824490140802005
:10829000C00101439950802292031A60F8BD08235F
:1082A0002371A3E70123A3716379012BAFD10A1CCA
:1082B000B2E700236371AFE7112280231148002148
:1082C00009F094FCA0230022DB055A742B69C2221A
:1082D00093432B61EB6C31229343EB64BBE71E2786
:1082E0000E261A200A210625022285E7EB6C312290
:1082F0009343EB642A69C02313432B61ABE7C04669
:108300000080004000400440D0060010980D00108E
:10831000D0020010840D001000E100E0FF00FFFF1C
:10832000F0B54D4644465F465646F0B493B00691CC
:108330000B9200210422099009F03CFF069C099D44
:10834000227863781202D3182B80A378E2781B027C
:10835000D21893B2160401D500F03FFC5A04099FCD
:10836000120FFA70580501D501223A71990502D50C
:10837000099C01226271DD0502D5099E0122B271BC
:108380001F0602D5099C0122E271099D0F22069E5B
:1083900013402B72327973791202D21892B26A8129
:1083A000B179F3790902CB189BB2AB81307A717A3B
:1083B00000024118E981B07AF17A069F0002411863
:1083C0000C3729820797002A3AD000200CA9089080
:1083D0000A91824600261821079D0A9A0496B446FF
:1083E000B0468946297864466B1C081C002C68D06E
:1083F0003F24A043C02800D1B8E00125AC460029A5
:1084000067D1049C131C002C02D12E2501321D7053
:10841000564647461670013700D1C7E00798031C3F
:10842000434404330793002B00D1BFE0089B099C11
:1084300001339BB208936389089DAB42CAD8A389D4
:1084400000220CAC002608920A94B346002B00D1FF
:10845000D9E1182200279146079D0A9A0497BC4645
:10846000B846297866466B1C081C002E00D1A6E091
:108470003F26B043C02800D1F7E00127BC460029C1
:1084800000D0A5E0049C131C002C02D12E25013243
:108490001D705E4647461670013700D186E007988A
:1084A000031C43441A1C0A32197807925A780902AD
:1084B0008A1892B20F2A00D99BE1C74C9200A258A9
:1084C00097463F26B043C0284ED00127B844002924
:1084D00097D048460138401A86B2B146070465D4A1
:1084E0006046002800D18844181D544682426441E9
:1084F0005646101D83427641301C092720438F4287
:10850000A4414D1E6442ADB204423BD0181C10433E
:108510000324044236D18F08BE00B6B200200024E6
:10852000BB461F5801341750A7B204305F45F8D33B
:10853000AF1B90199C19BFB2B14213D021780170C2
:10854000002F0FD061784170012F0BD0A178013539
:10855000817051192E204A1C087004995D1901314F
:1085600004913FE70135F4E7022080443F2319409E
:108570006B780902069CC918611801254B1CAC4692
:1085800009783CE701350021585C50540131A9427B
:10859000FAD1DEE71A1C9B7A0B32D3185A1C1B78CF
:1085A000D3180793181C002800D022E1FF2040B206
:1085B00013B03CBC90469946A246AB46F0BD3F275F
:1085C000B843C0284FD001208044002900D159E78A
:1085D00048460138401A87B2B9460404E6D46546D5
:1085E000002D00D18844181D5C46824264415E46DD
:1085F000101D83427641301C092720438F42A4413D
:108600004D1E6442ADB204423BD0181C10430324FB
:10861000044236D18F08BE00B6B200200024BA460C
:108620001F5801341750A7B204305745F8D3AF1B79
:1086300090199C19BFB2B14213D021780170002F5C
:108640000FD061784170012F0BD0A1780135817076
:1086500051192E204A1C087004995D1901310491AA
:10866000FFE60135F4E7022398443F246B7821406C
:108670000902069DC918691801264B1CB4460978E1
:10868000A3E701350021585C50540131A942FAD1C9
:10869000DEE70C3305931E1C00239846002518279F
:1086A0000A9BAA46B9463178721C081C002D00D1DD
:1086B000AFE03F25A843C02800D1D9E1012500291A
:1086C00000D0B0E045461A1C002D00D17DE25F4687
:1086D00050461F70013000D168E705990A1C5244CA
:1086E0000792101C5FE70023984600251827079E75
:1086F0000A9BAA46B9463178721C081C002D00D18D
:108700004FE13F25A843C02800D1BEE10125002943
:1087100000D04FE145461A1C002D00D159E25F46BA
:1087200050461F70013000D140E7079900230A1C12
:1087300052440025049318270A9B0792161CA8464A
:10874000B946AC466046721C3178002800D1CCE1B5
:10875000081C3F25A843C02800D11EE20126B446CC
:10876000002900D0CBE104991A1C002902D12E2443
:10877000013314705D4646461D70013600D115E781
:10878000079F3B1C434414330793181C0BE7002737
:1087900000251821079E0A9BB846AA4689463178CB
:1087A000721C081C002D00D198E03F25A843C0286A
:1087B00000D177E10125002900D099E045461A1C37
:1087C000002D00D1FDE15F4650461F70013000D101
:1087D000ECE6079982E7C046185201009A7A0B9D91
:1087E0002A70DA7A6A701A7BAA705A7B0E33EA70A2
:1087F0000793089B099C01339BB20893A389089DAA
:10880000AB4200D925E6099D287A43425841C0B2BF
:10881000CDE63F24A043C02800D127E10126B24481
:10882000002900D14EE748460138401A86B2B146C9
:10883000070400D5BAE6002D00D18A44101D5C461D
:10884000834264415F46181D82427F41381C0927DC
:1088500020438F42A4414E1E6442B6B2044200D16E
:108860002BE1101C18430324044200D025E18808A2
:108870008446870003956546BFB29C4600200024CD
:10888000079104952B1C1558614601340D50A5B273
:1088900004309D42F7D36346D81904900799F01B22
:1088A00080B2039DD4198446B94200D1D8E0217822
:1088B000049F3970002800D1D2E061786046797059
:1088C000012800D1CCE0A1780136B97099190124B2
:1088D00096192E224B1C0A70A044E4E63F24A043C4
:1088E000C02800D1DCE00126B244002900D165E7B0
:1088F00048460138401A86B2B146070400D555E60D
:10890000002D00D18A44101D5C46834264415F46BD
:10891000181D82427F41381C092720438F42A44101
:108920004E1E6442B6B2044200D1CEE0101C184381
:108930000324044200D0C8E088088446870000244D
:10894000002002916146BFB29C46059403900195B8
:108950000B1C1558614601340D50A5B20430AB42D2
:10896000F7D86346D81904900299F01B80B2019D94
:10897000D4198446B94275D02178049F39700028F3
:1089800070D061786046797001286BD0A17801368B
:10899000B9709919012496192E224B1C0A70A04413
:1089A000FDE63F24A043C0286DD00126B244002933
:1089B00000D1AFE648460138401A86B2B1460704F6
:1089C00000D5F3E5002D00D18A44101D5C4683429A
:1089D00064415F46181D82427F41381C09272043AD
:1089E0008F42A4414E1E6442B6B2044275D0101CA0
:1089F00018430324044270D18808844687000395F5
:108A00006546BFB29C4600200024059104952B1CAE
:108A10001558614601340D50A5B204309D42F7D37C
:108A20006346D81904900599F01B80B2039DD419B0
:108A30008446B94218D02178049F3970002813D099
:108A400061786046797001280ED0A1780136B9703E
:108A50009919012496192E224B1C0A70A0444AE64B
:108A6000013633E7013694E70136F1E70227BA44CD
:108A70003F20727801400902069C891861184A1C3F
:108A8000012509781BE60227BA443F20727801408D
:108A90000902069C891861184A1C0125097836E6E6
:108AA0000227BA443F20727801400902069C8918C7
:108AB00061184A1C012509787DE601360021505CC9
:108AC00058540131B142FAD100E701360021505C1F
:108AD00058540131B142FAD15BE701360021505CB4
:108AE00058540131B142FAD1B2E7081C3F24A043E7
:108AF000C02850D00125A844002900D133E64846BB
:108B00000138401A86B2B146070400D54EE56046EA
:108B1000002800D18844101D5C46834264415F46B2
:108B2000181D82427F41381C092520438D42A441F3
:108B30004E1E6442B6B204423BD0101C18430327B9
:108B4000074236D18D08AF00BFB200200024AA46EC
:108B5000155801341D50A5B204305545F8D3F51B06
:108B6000D819D419ADB2B94213D021780170002DB3
:108B70000FD061784170012D0BD0A1780136817042
:108B8000049899192E27013096194B1C0F700490E8
:108B9000D8E50136F4E70227B8443F207278014057
:108BA0000902069C8918611801254A1CAC460978FF
:108BB000A2E701360021505C58540131B142FAD18C
:108BC000DEE72E2601331670FDE52E2601331670E2
:108BD0007DE52E2601331670A1E50122AA70FFF76C
:108BE000BDFBC046034B044A1870044B1960044B8C
:108BF0001A807047AC0D001022110000B40D001057
:108C0000B80D0010F0B54D4644465F465646F0B4E8
:108C10000C1C5C498FB00490059208780022002358
:108C20008A46022101F07EF9574B584A19689B4643
:108C30001388039101339BB213801A0A0A704B7098
:108C4000012200238A70CB700B714A718B71CB713A
:108C50000B724B728B72CB720C22884608A8211CB7
:108C600090440BF003F908A80BF022F980B281467A
:108C700008AD17E0441BA4B24746434601371C70B9
:108C8000002C1CD0381C291C221C3F190BF03AF96F
:108C9000B846002E00D170E0631CE4434C44A4B2FB
:108CA000ED18A146281C2E210BF0B4F8061EE1D1C8
:108CB0004C464746434601371C70002CE2D1002247
:108CC00001233A707B70BA70FB705246039B107898
:108CD0003A1DD21A352300935B46196892B2049B61
:108CE00001F07EFD2A4C2B4D35265146087801F0C7
:108CF00063F8002821D121680229F6D92B78206059
:108D0000012B09D92870002040B20FB03CBC90461E
:108D10009946A246AB46F0BD013352462B701078FF
:108D20005B46009619680022049B01F059FD5146EC
:108D3000087801F041F80028DDD05B4652461968FA
:108D4000802314785B00021C984214D86B461A33B7
:108D500092B20093201C07AB01F0F4FD5A46116853
:108D600008A8059AFFF7DCFA5346041C187801F0AE
:108D7000C1F9201CC8E71A1CE8E7414601370E700C
:108D80009DE7C046AC0D0010B40D0010B80D0010EA
:108D9000B00D0010D00A0010024B1A6801321A60A0
:108DA0007047C046B00D0010F02008B5000108491A
:108DB000042200F097FFA020C0000649042200F022
:108DC00091FF802040000449042200F08BFF08BD81
:108DD000E00A0010D40A0010DC0A001008B5802157
:108DE000002000F011FF002000F0DEFE90200001C6
:108DF0000249062200F076FF08BDC046BC0D0010F7
:108E000008B58021002000F0FFFE002000F0CCFE1D
:108E1000F02000010B49042200F064FFA020C000F4
:108E20000949042200F05EFF802040000749042227
:108E300000F058FF902000010549062200F052FF83
:108E400008BDC046E00A0010D40A0010DC0A001079
:108E5000BC0D001070B5094B094D0A4C2B600A4B34
:108E60000A4E23600A4B1E60002800D028600029AB
:108E700000D02160002A00D01A6070BDA98D0000CA
:108E80000C01001008010010018E0000DD8D0000B3
:108E90001001001030B5902083B000016946062211
:108EA00000F0E2FE2C4B01221B682C491A705A700C
:108EB00006229A700022DA7009681A81080E187169
:108EC000080C5871080A9871802098722448D9714A
:108ED00004780021D972197359739973D97319746D
:108EE00059749974D974197559759975D975197614
:108EF00059769976D9761C7744785C7784789C7714
:108F0000C478DC77057920241D55447921201C5430
:108F100022201954232019545A629A62DA621A6381
:108F20005A639A63DA631A645A649A64DA641A6553
:108F30005A659A65DA651A665A669A66181C1A1C8A
:108F40006C32EC30002102C28242FCD10549EC2295
:108F5000995003B030BDC046CC0D0010C40D0010B8
:108F6000BC0D001063825363F0B556464D4644462F
:108F70005F46F0B48BB0FFF78DFF6F4B3522196859
:108F8000F023CA540123F1228B54F2228B543D204A
:108F9000F32288540720F4228854F5228B54674B1F
:108FA000F622187888545878F72288549878F8224E
:108FB0008854DD78F9228D541C79FA228C545B791F
:108FC0000C2202930298FB23C8545D48FC230678C8
:108FD000CA540022FD23CA54002E00D192E012236D
:108FE00000E0131CCF185A1CE837113B3E719BB2AE
:108FF000C65C92B2002EF4D1561CB6B2B346961C93
:10900000B6B2B246D61CB6B2F71A0333DBB203933C
:10901000131D9BB20493531D9BB20593931D9BB2EA
:109020000693D31D9BB20793131C08339BB299463A
:10903000131C09339BB29846131C0A339BB2381F8A
:109040009C46171C131C0C330B37BFB29BB28A18FB
:10905000E83215715D464A19E83214715446029D92
:109060000A19E83215710A180398E8328E1910713E
:10907000E83637223271049ACF198818E830062270
:109080000271059CE8370819E83001240471069D37
:1090900003244819E8300471079C4D460819E8304C
:1090A00002714A19E8320F20107140460A18E8325E
:1090B0003A20644610710A19E8323B201071FF22F1
:1090C0003A713822FF32934209D89C200024400094
:1090D000CA180133E8329BB214718342F8D10123DC
:1090E0005B420993174B892218784323009392001F
:1090F00009AB01F075FB0BB03CBC90469946A2460B
:10910000AB46F0BD1C2294461A221B209146182221
:1091100080460692192016220790049217201422E6
:109120000590924603201322039093461D271E2389
:109130001120152612228AE7CC0D0010BC0D00105C
:1091400018010010D00D0010F0B55F4656464D4690
:109150004446F0B491B0FFF79DFEE74B1B78033B0C
:10916000012B00D8ABE101235B420F93E34B0FAE21
:109170001968FF200C963522F023CA540123F122EE
:109180008B540324F2228C543D24F3228C54072464
:10919000F4228C54F5228B54D94AF6231478CC54FB
:1091A0005478F723CC549478F823CC54D778F92307
:1091B000CF541379FA240B555279B8460292029C87
:1091C000FB228C54FF2800D12DE120221F241D27D3
:1091D0001E261C200D92A4461B221A240A9718272B
:1091E0000B9609901926172008920794162214242A
:1091F00005971327069604900392A1461526BA46B2
:1092000012221125122010240C19271CE8370C24D7
:109210004D193C712F1CE83700243C71B94C27785C
:10922000002F00D176E10D18E8352F716578421CCA
:10923000002D00D176E18A18E8321571A578861CD8
:10924000002D00D169E18E19E8363571E578C21C30
:10925000002D00D164E18A18E83215712579061DC8
:10926000002D00D163E18E19E83635716579421D14
:10927000002D00D15EE18A18E8321571A479861DAF
:10928000002C00D150E18E19E836C21D347107253B
:10929000501C80B28246901C80B28146101D80B264
:1092A0000390501D80B20490901D80B20590D01D97
:1092B00080B20690101C083080B20790101C093054
:1092C00080B20890101C0A3080B20990101C0B303C
:1092D00080B20A90101C0C3080B20B90101CD61C6F
:1092E0000D3080B2B6B2EC1C8446751B101C043DD8
:1092F0000E3080B24D198A18E8324746177157462A
:10930000CA19E83213714A46029F8B18E8338E1946
:109310001F71E835E83637232C713371039A032522
:109320008B18E83308221A71049C01220B19E833C8
:109330001A71059E06228B19E8331D71069FCB1901
:10934000E8331A71079A8B18E8330F221A71089CB8
:109350003A220B19E8331A71099E3B228B19E83324
:109360001A710A9F1F22CB19E8331A710B9A6446AF
:109370008B18E83321221A71061C0B19E833FF22DF
:10938000EC361A719C248B1964005B42241A2B4022
:10939000A34200D9231C002B12D00D18E83500225F
:1093A0002A71451C012B00D8A4E04D19E8352A711B
:1093B000851C022B00D89DE04D19E8352A71033039
:1093C000E71ABD089B19AA0090460026CA18002378
:1093D0000133002440C2AB42FAD34044B84512D016
:1093E0000B18E83338221C71FF32431C93420ADC0D
:1093F000CB18E8331C7102309C235B00984202D0EA
:109400000818E8300471404B8922187843230093F0
:1094100092000C9B01F0E4F911B03CBC90469946D7
:10942000A246AB46F0BD3224FC228C540424FD221B
:109430008C54364AFE2516782B274E5555782C2607
:109440000D549578802040000D54D0780222FF32D0
:10945000885481223620520088540422FF328C54D2
:109460002B4A8220147840000C5454780620FF3098
:109470000C549478832040000C54D0780822FF329A
:1094800088542A20292228240D96BC4627262627E0
:109490000B9025200A9209942422232408960797EA
:1094A0002226069020271F200592049403968246C8
:1094B0002126B9461E221D251E201C24A4E60F4B82
:1094C000196800238B72CB72104B1A780A735A7882
:1094D0004A739A788A73DB78CB730FAB0C930C4B7F
:1094E0000C9C1A7822705A7862709A78A270D87898
:1094F000E07040E6281C63E7D10A0010CC0D001094
:10950000BC0D001018010010D00D0010E00A001072
:10951000C80D00100D980324EDE6321C0225B7E6B5
:109520000325B5E60125B3E6321C0625B0E6321C5C
:109530000425ADE60525ABE670B584B0FFF7AAFCBF
:109540003C4B002219683520F0238A72CA72C85435
:109550000123F1200B54F224042008553D25F32467
:109560000D550725F4240D55F5240B55324BF624E3
:109570001D780D555D78F7240D559D78F8240D550F
:10958000DD78F9240D551D79FA240D555C79FB23FE
:10959000CC543224FC23CC54FD23C854274BFE2446
:1095A0001D780D555D78FF240D559E7880256D0042
:1095B0004E55DD780223FF33CD54812336255B00E1
:1095C000CD540423FF33C8541D4B82201D78400026
:1095D0000D545D780620FF300D549D7883204000A7
:1095E0000D54D8780823FF33C85484235B00CC542F
:1095F0000A23FF33CA5485235B00CA540C23FF336C
:10960000CA54862252008B188922920088180022A0
:1096100004C38342FCD101235B420393094B89229B
:10962000187843230093920003AB01F0D9F804B0FB
:1096300070BDC046CC0D0010BC0D0010E00A00103B
:10964000C80D0010D00D0010F0B54D4644465F46E1
:109650005646F0B4CD4D0023EB5687B00524062BBB
:1096600007D1201C07B03CBC90469946A246AB46A9
:10967000F0BDC74CC221207889004001401800F09D
:1096800093FA222805D0207802214422002300F0FA
:1096900049FC207800F090FB021E08D100272B78AF
:1096A000042B00D984E0BB4A9B00D3589F466E46EA
:1096B000B94F0E362078009604AB396801F042F9B4
:1096C0003388432B76D05746E9E7052F00D1E6E0F3
:1096D000062F00D012E1B14A00231360B04A0A21DC
:1096E0001160B04A0124137001232B70B9E7022FD7
:1096F00000D1A7E0AB4E0023F356012B00DC0FE1B5
:10970000A64A00231360A64A0A212B701160337009
:109710000024A6E7A44B1B685F1C00D1A2E09F4E6B
:109720005B083268042493429BD2A04B1A68A04B7A
:109730001A60A04B1A6801321A60FFF705FD984ABB
:109740000A211160974A0023336013702C7088E758
:10975000964B00221A60FFF707FC01232B700124AF
:109760007FE7052F00D17FE0062F0BD18B4A002326
:1097700013608B4A0A2111608A4A04241370012362
:109780002B706EE7874C0023E356012B00DDBAE017
:10979000824D834E2B683168994209D2FFF7D4FC81
:1097A00000232B602B680A33336023780133237046
:1097B000012456E73B68804A1E7F11788E4200D014
:1097C0006CE75E7F51788E4200D067E79E7F91788C
:1097D0008E4200D062E7DE7FD1788E4200D05DE716
:1097E00020215E5C11798E4200D057E72121595C1F
:1097F0005279914200D051E780B21A1C1B18994649
:109800006E4F002368499A466D486E4B6E4EF0329B
:10981000BC468846914500D855E71178062900D105
:1098200012E100D8DCE0352900D1FFE000D8EAE001
:10983000362900D1FEE0FF2900D144E7911C52787F
:109840008A18E7E7544B01241A68584B117C1970A9
:10985000517C5970917C9970D27CDA70FFF774FC5E
:109860002F70FEE60424FCE64E4E00233370504A6F
:109870004E4B10781978884203D150785978884235
:1098800079D0524B03241B689847444A0023136045
:10989000434A0A213370032311602B70E1E6D8207C
:1098A000400100F081F9061CD8204001032100F09E
:1098B000ABF9474B20784749009311223B4B00F00E
:1098C0008FFF041CD8204001311C00F09DF90D349D
:1098D00042D0FFF731FE314A116813685B1A012B41
:1098E000FBD900242E4B14600A221A602D4B1C70E9
:1098F000394B1B6898472C700124B2E6294C002391
:10990000E356012B1FDDFFF72FFB0123234A2B70AA
:1099100000231360224A0A21237011600124A0E66B
:109920001E4D1F4F2B6839680124994200D398E6D9
:10993000FFF71AFB00232B602B680A333B60337858
:10994000013333708DE6154D154E2B6832689A42FF
:1099500000D223E7012484E6204B01241B689847AA
:109960000E4A002313600E4A0A2111600D4A13703B
:1099700003232B7075E690789978884281D1D2784C
:10998000DB789A4200D07CE704247EE7D10A0010FD
:10999000D00D001058520100CC0D0010E40A001048
:1099A00004010010EC0A001014010010E00A00107D
:1099B000D80A0010C40D0010BC0D0010E80A0010F9
:1099C000D40A0010C80D0010DC0A001008010010B5
:1099D000881300006C520100100100100C010010EF
:1099E000012941D000293DD0032900D026E79778EE
:1099F00051783770D77877701779B77057795218D0
:109A0000F770023206E7332900D017E7917847460E
:109A100039600F02D17879180F02117979180F0285
:109A200051790632791847463960F3E69778033260
:109A3000BA46EFE691781970D1785970117999701A
:109A400051790632D970E5E6517897788B466146B0
:109A50000F70D7784F7017798F7057795A44CF703D
:109A60000232D7E60132D5E691780170D1784170A3
:109A70001179817051790632C170CBE670B5254CF1
:109A8000061C9020002382B006220D1C0001211C20
:109A9000019300F0E9F8627823781343A278134326
:109AA000E278134322791343627913430DD10822DC
:109AB00062709020DC22A2700001211C062223701B
:109AC000E3702371637100F00DF9134B134A1E709C
:109AD000134BF0201D60134B01A91A6000010422F2
:109AE00000F000F9F02001A90001042200F0FAF8CA
:109AF000802001A94000042200F0F4F80A4A002363
:109B000013600A4A0A211160094A1370094A137046
:109B100002B070BDBC0D0010D00D0010785634128C
:109B2000CC0D0010C40D0010E40A00100401001058
:109B3000EC0A0010D10A0010024B1A6801321A60B8
:109B40007047C046E40A0010044B1A7802705A7835
:109B500042709A788270DB78C3707047E00A001018
:109B6000044B1A7802705A7842709A788270DB78C7
:109B7000C3707047DC0A0010044B1A7802705A78E0
:109B800042709A788270DB78C3707047D40A0010F4
:109B9000044B1A7802705A7842709A788270DB7897
:109BA000C3707047E80A001030B5164C83B0A16846
:109BB000051C884722699047236A002B15D0636AE9
:109BC000002B12D069462A0C0A702A0A4A708D703E
:109BD000684603219847A26990476369051C984726
:109BE000E3689847281C03B030BD2802E169000EE5
:109BF00088472804000EE2699047E8B2E369984775
:109C0000E9E7C04624010010F0B5164C83B00E1CE5
:109C1000A168051C8847226990472F1C04231F4315
:109C2000636A002B0FD069462A0C2D0A0A704D700A
:109C30008F70CE7068460421984762699047E36848
:109C4000984703B0F0BD2802E369000E2D04984741
:109C5000280EE1698847F8B2E2699047301CE36951
:109C60009847EAE724010010F0B51D4D83B00C1CA5
:109C7000A968061C171C88472A6990472B6A002B85
:109C800015D06B6A002B12D06946320C0A70320A6A
:109C90004A708E70684603219847201C391C2A6A36
:109CA00090476B699847EB68984703B0F0BD300266
:109CB000000EE96988473004000EEA699047F0B267
:109CC000EB699847002FECD07E1EB6B2A61901367C
:109CD000A969884720700134B442F9D1E1E7C04650
:109CE00024010010F0B5474680B41E4C82B088466F
:109CF000A168061C171C884722699047636A0425DF
:109D00003543002B14D0320C6946360A0A704E7067
:109D10008D706846032198474046391C626A904717
:109D200063699847E368984702B004BC9046F0BD69
:109D30003002000EE36936049847300EE169884727
:109D4000E8B2E2699047002FEAD04546013F6B1C1C
:109D5000BFB2DF192878E36901359847BD42F9D1D0
:109D6000DEE7C04624010010F8B54601802308361E
:109D70009B01F71884239B01F618002501E0A542FA
:109D800017D0381CFFF710FF0402301CFFF70CFF40
:109D9000A4B22418A4B2002CF1D0381CFFF704FFA1
:109DA0000502301CFFF700FFADB22D18ADB2A54281
:109DB000E7D1281CF8BDC046F8B5460198230836FF
:109DC0009B01F7189C239B01F618002501E0A54292
:109DD00017D0381CFFF7E8FE0402301CFFF7E4FE42
:109DE000A4B22418A4B2002CF1D0381CFFF7DCFE7A
:109DF0000502301CFFF7D8FEADB22D18ADB2A5425A
:109E0000E7D1281CF8BDC046F0B5454657464E463A
:109E1000E0B4141C0D1C002A29D08000061C013659
:109E200090229201F600B7188146381CFFF7BCFE5D
:109E300094239B01F6188246301CFFF7B5FE52466C
:109E40001302C01880B20302804648460230221C2A
:109E5000C00044441818291CA4B2FFF743FF210A8C
:109E6000381CFFF7D1FEE1B2301CFFF7CDFE1CBC61
:109E700090469946A246F0BDF0B5454657464E4637
:109E8000E0B4141C0D1C002A29D08000061C0136E9
:109E9000A0229201F600B7188146381CFFF784FE15
:109EA000A4239B01F6188246301CFFF77DFE524624
:109EB0001302C01880B20302804648460330221CB9
:109EC000C00044441818291CA4B2FFF7CDFE210A93
:109ED000381CFFF799FEE1B2301CFFF795FE1CBC61
:109EE00090469946A246F0BDF8B54401A0239B01D7
:109EF0000834E618301C0D1CFFF756FEA4239B0106
:109F0000E418071C201CFFF74FFE3F024519ED190E
:109F1000ADB2290A301CFFF777FEE9B2201CFFF72B
:109F200073FEF8BDF0B556465F464D464446F0B464
:109F3000924687B0061C0F1C9946082800D9C9E034
:109F4000022916D0042914D0FB20012907D040B2E1
:109F500007B03CBC90469946A246AB46F0BDF02007
:109F6000000105A90422FFF77FFE0599FD200029C5
:109F7000EDD04A46520700D5AAE04B46002B0FD041
:109F8000012F00D195E0022F00D08DE04B464946CD
:109F90009B0600D493E04BB2002B00DB98E0CBB2E1
:109FA000039373018022083352009846141C4444E2
:109FB000201C1021FFF728FE201CFFF7F5FD0028CC
:109FC000FAD180239B00051C181C1F214044FFF779
:109FD0001BFE0123B340DB433F499BB201930A1CA4
:109FE0000B888B4601990B403C4913800B88019AE2
:109FF00013400B803A4B72009D520292394A002363
:10A000009355C0239B001D1C4544281CFFF7CCFD25
:10A010000028FAD103990F2399430F43F9B2404620
:10A02000FFF7F2FD5146002908D12F4B2F491A881E
:10A030009246013292B28A4239D01A808023DB00E4
:10A04000181C5246110A4044FFF7DEFDA023DB0036
:10A05000181C52464044D1B2FFF7D6FD201C012106
:10A06000FFF7D2FD201CFFF79FFD0028FAD15946CB
:10A070000B88019A4946134001220A40B240174911
:10A0800013435A4613800B88019A13400B80144ADD
:10A09000029B1449D05200238B55281CFFF784FDE6
:10A0A0000028FAD0F0B252E7D9B2039179E7104A0A
:10A0B000C3E721234A4613420AD0D3B270E74A4687
:10A0C000CBB2D20600D46BE75AB2002A00DA67E7B7
:10A0D000FA203CE7FF203AE7EE0A0010F00A0010F1
:10A0E000FC0A0010F40A001020010010F0FF00002C
:10A0F00000C0FFFFF8B5061E082E2FD8470108370D
:10A100007D1CFF35281C1021FFF77EFD281CFFF762
:10A110004BFD041EFAD180239B00F8181F21FFF786
:10A1200073FD0F4B0122B2401988D24392B2114005
:10A1300019800C4B19880A401A800B4B7200D452BC
:10A140000A4B00229A55C0239B00FC18201CFFF7E5
:10A150002BFD0028FAD1012040B2F8BDFF20FBE71B
:10A16000EE0A0010F00A0010FC0A0010F40A0010B9
:10A17000F0B5474680B4061E082E29D8450108359B
:10A18000281CFFF711FD0F23184001281CD1C02106
:10A1900089006F18381CFFF707FD132816D16C1CB7
:10A1A000FF34201C0221FFF72FFD201CFFF7FCFCD1
:10A1B0000028FAD1381CFFF7F7FC14280AD1012037
:10A1C00040B204BC9046F0BDFB20F9E7FD20F7E764
:10A1D000FF20F5E7201C1021FFF716FD201CFFF7DC
:10A1E000E3FC80460028F9D180239B00E8181F215A
:10A1F000FFF70AFD0C4B0122B2401988D24392B2FC
:10A2000011401980094B19880A401A80084B7200C6
:10A210004146D152074B00229A55381CFFF7C4FC27
:10A220000028FAD1FC20CBE7EE0A0010F00A00105B
:10A23000FC0A0010F40A0010F0B5474680B40D1C6B
:10A24000071C9046082869D846010836301CFFF7DD
:10A25000ABFC0F231840012856D1C0239B00F418F3
:10A26000201CFFF7A1FC13285AD12B786A781B0217
:10A270009B18A9781B02EA785B18013A1B02D318D5
:10A28000033351D84346002B4CD0C0231B01F01898
:10A29000291C0422FFF726FD4346190A80235B018F
:10A2A000F018FFF7B1FC4346D9B288235B01751C57
:10A2B000F018FF35FFF7A8FC281C0421FFF7A4FCC9
:10A2C000281CFFF771FC0028FAD1184B1B883B4172
:10A2D0001F1CFB0714D480239B00F618082509E0F7
:10A2E000301CFFF761FC054210D1201CFFF75CFC1D
:10A2F000002811D0201CFFF757FC1728F0D10120AF
:10A3000040B204BC9046F0BDFB20F9E7301C0821A8
:10A31000FFF77AFCF320F3E7FC20F1E7FF20EFE7FB
:10A32000FD20EDE7F520EBE7F420E9E7EE0A001069
:10A33000F8B544465F4656464D46F0B48046082878
:10A340006AD846010836301CFFF72EFC0F23184050
:10A3500001285FD1741CFF34201C0821FFF754FC36
:10A36000201CFFF721FC0028FAD1012341461A1CCA
:10A370008A40D24392B29246284A51469146128868
:10A380000A4049460A80264A4146934612880A41B5
:10A39000134212D1C022802392009B00B5180827D7
:10A3A000F61804E0301CFFF7FFFB07420CD1281C15
:10A3B000FFF7FAFB0028F5D1012040B23CBC9046E3
:10A3C0009946A246AB46F8BD201C1021FFF71CFCA5
:10A3D000201CFFF7E9FB071EFAD11F21301CFFF7F5
:10A3E00013FC5A46138851460B40494613800B888C
:10A3F000524613400B8043465A000A4B4146D752FF
:10A40000094B00225A54281CFFF7CEFB0028FAD132
:10A41000F320D2E7FB20D0E7FF20CEE7F00A0010C0
:10A42000EE0A0010FC0A0010F40A0010F0B54D46C8
:10A4300044465F465646F0B483B0051C0191141C97
:10A44000082800D9AAE043010833181C9A46FFF7F0
:10A45000ABFB0F231840012800D0A2E0002C00D154
:10A46000A2E0C02189000E1C5644301CFFF79CFB63
:10A47000172802D01C2800D083E0624A01271388E5
:10A4800093462B411F423CD1F8235B01181C5044DA
:10A49000FFF78AFB800280B2071CA04200D9271C6C
:10A4A00001235949AB40BFB298468946281CFFF7A3
:10A4B0005BFC041C301CFFF777FB172801D01C281D
:10A4C00035D149460B88424613422DD0A74223D8A6
:10A4D000281C01993A1CFFF797FC80235B001C1C89
:10A4E0005444201C2021FFF78FFB201CFFF75CFB4E
:10A4F0000028FAD159460B88424613430B80381C7A
:10A500000BE0802292009046D0444046FFF74CFB7F
:10A51000C30639D403074AD4002003B03CBC90469C
:10A520009946A246AB46F0BDA742BFD8D0E78022ED
:10A530005200171C5744381C1021FFF765FB381CCC
:10A54000FFF732FB041EFAD180239B00181C1F2149
:10A550005044FFF759FB4146CB4349460A889BB21A
:10A560001A400A8059460A8813400B80274B6A001C
:10A57000D452274B00225A55301CFFF715FB0028F8
:10A58000FAD107204042C8E710214046FFF73CFBC4
:10A5900059460B88AF40BB430B8075E70120404212
:10A5A000BBE705204042B8E70E204042B5E78021D6
:10A5B00049000F1C5744381C1021FFF725FB381C9D
:10A5C000FFF7F2FA041EFAD11F214046FFF71CFBE9
:10A5D0000D4A0123AB401188DB439BB21940118027
:10A5E00059460A8813400B80084B6A00D452084B26
:10A5F00000225A55301CFFF7D7FA0028FAD10D2057
:10A6000040428AE7F00A0010EE0A0010FC0A00102F
:10A61000F40A0010F0B556464D465F464446F0B485
:10A6200083B0051C00919246082800D9C7E0430179
:10A630000833181C9946FFF7B7FA0F240440012C81
:10A6400000D0BFE05246002A00D1BEE0F0235B01FB
:10A65000181C4844FFF7A8FAC022F82392005B01B7
:10A66000161CAC409B465A4F01904E44A046CB442A
:10A67000281CFFF7A1FB041C301CFFF795FA1728D4
:10A6800014D01C2841D1002C16D1281CFFF76CFBDC
:10A69000041C5846FFF788FA8002844262D04C4A74
:10A6A000138842461342E3D0002024E03B88424610
:10A6B0001A4227D0002CF7D0019A93029BB21A1CA1
:10A6C000534500D9524693B2A34200D9221C96B2F8
:10A6D000281C0099321CFFF7CFFB80235B001C1C59
:10A6E0004C44201C4021FFF78FFA201CFFF75CFA36
:10A6F0000028FAD1301C03B03CBC90469946A246D3
:10A70000AB46F0BD002CB3D0D6E780225200171C18
:10A710004F44381C1021FFF777FA381CFFF744FA32
:10A72000041EFAD180239B00181C1F214844FFF708
:10A730006BFA4346DA43264B92B2198811401980CE
:10A74000244B19880A401A80234B6A00D452234BA9
:10A7500000225A55301CFFF727FA0028FAD10720AB
:10A760004042C8E780225200171C4F44381C102179
:10A77000FFF74AFA381CFFF717FA041EFAD18023B4
:10A780009B00181C1F214844FFF73EFA4346DA435A
:10A790000F4B92B21988114019800E4B19880A404C
:10A7A0001A800D4B6A00D4520C4B00225A55301CB3
:10A7B000FFF7FAF90028FAD1072040429BE7012071
:10A7C000404298E70520404295E70E20404292E73C
:10A7D000EE0A0010F00A0010FC0A0010F40A001043
:10A7E000F8B55F4644464D465646F0B498460AAB27
:10A7F000051C8B46141C1F88082800D994E04301CF
:10A800000833181C9A46FFF7CFF90F231840022887
:10A8100002D0042800D090E0002C00D187E0504600
:10A82000FFF7C2F95046FFF7BFF9C0229200161C8D
:10A830005644301CFFF7B8F9422802D0222800D035
:10A8400078E0C0231B01181C504441460422FFF746
:10A8500049FA80225201101C390A5044FFF7D4F9FA
:10A8600088235B01181CF9B25044FFF7CDF9F82298
:10A870005201101C5044FFF797F9800280B2071C68
:10A88000A0423ED80123AB4099462D4BBFB298461B
:10A89000281CFFF769FA041C301CFFF785F9002813
:10A8A00031D0424613884A46134227D0A74232D8B5
:10A8B000281C59463A1CFFF7A7FA80235B001C1C92
:10A8C0005444201C2021FFF79FF9201CFFF76CF94E
:10A8D0000028FAD180229200141C54441025082626
:10A8E00001E0064219D1201CFFF75EF90542F8D0BD
:10A8F000201C1021FFF788F9381C06E0BC42C7D3A2
:10A90000D6E7271CBEE7042040423CBC904699464F
:10A91000A246AB46F8BD0020F7E7201C0821FFF750
:10A9200073F90D204042F0E701204042EDE70E2090
:10A930004042EAE707204042E7E705204042E4E7DB
:10A94000EE0A0010F0B54D465F4656464446F0B458
:10A9500087B0051C029101920393082800D9B7E043
:10A9600043010833181C9B46FFF71EF90F23009084
:10A970000340022B02D0042B00D0CFE0019A002A22
:10A9800000D1CEE06B4B6A0091461A1C4A449A46AD
:10A990001388002B19D1C0239B001E1C0123AB4040
:10A9A000654F5E449846281CFFF706FA041C301CCD
:10A9B000FFF7FAF8002800D187E03B8842461342AF
:10A9C00022D0002C02D1002045E00024009A072369
:10A9D0001340022B46D0042B19D152464A44138807
:10A9E000002B00D177E080225200161C534F5E44AA
:10A9F000019A1C1C934200D9141CA4B2281C029971
:10AA0000221CFFF739FA0EE0002CCCD0DEE7281C20
:10AA1000211CFFF769FA8022534652004B44161C52
:10AA2000464F1C805E44301C4021FFF7EDF8301C7F
:10AA3000FFF7BAF80028FAD152464A441388524622
:10AA40001B1B9BB24A441380002B02D0785D01236C
:10AA500018437855201C07B03CBC90469946A24646
:10AA6000AB46F0BD52464A441388002BBBD104AC20
:10AA7000281C211C0822FFF7FFF980235B001E1C05
:10AA80005E44301C4021FFF7BFF8301CFFF78CF804
:10AA90000028FAD1039A2378284F137063785370F3
:10AAA000A3789370E378D370237962791B02D3186B
:10AAB000109A1380A379E2791B02D31852464A44B4
:10AAC0009BB2138080227A5592E704204042C2E76D
:10AAD00001204042BFE704AC281C211C0222FFF7E2
:10AAE000CBF980235B001E1C5E44301C4021FFF725
:10AAF0008BF8301CFFF758F80028FAD162782378D9
:10AB0000023A1B02D31852464A449BB213800C4AA5
:10AB1000934209D8094F80227A5569E705204042BF
:10AB200099E70E20404296E7281CFFF7E3FA054814
:10AB300091E7C046FC0A0010EE0A0010F40A00106B
:10AB4000EA05000017FCFFFF10B5141C08284CD8BC
:10AB500007294CD82A4B89005B589F4611781F293A
:10AB600045D8284B4001C018FFF74EF8012040B2ED
:10AB700010BD244B4001C018FFF716F81F231840E2
:10AB800020700120F3E71378012B32D0002B2ED157
:10AB90001D4B01228240101C1A8882431A8001201A
:10ABA000E5E7194B1B880341181C0123184010705E
:10ABB0000120DCE7154B4001C018FEF7F5FF8002CD
:10ABC00020800120D3E74001114BF5E711781F29C0
:10ABD0000DD882239B004001C018FFF715F8012013
:10ABE000C5E7822340019B00C5E7FF20BFE7F620B1
:10ABF000BDE7054A8340118801200B431380B6E767
:10AC000080520100082C0000EE0A0010081F00000E
:10AC1000081E000070B5041C151C082800D98AE025
:10AC20000C2900D985E0464B89005B589F46201CC3
:10AC3000FFF7C2F82880012040B270BDC2239B00FC
:10AC40004401E018FEF7B0FF28700120F4E740014E
:10AC50000830FEF7A9FF0128E9D03A4B6400E35A17
:10AC600001202B80E8E740010830FEF79DFF0F230D
:10AC70001840012861D1344B1B5D2B70DCE7440187
:10AC8000201C0830FEF790FF0F2398432870012006
:10AC9000D2E72E4B4401E018FEF786FF2870012012
:10ACA000CAE72B4B4401E018FEF77EFF2870012015
:10ACB000C2E7440190235B010834E018FEF774FFFB
:10ACC00098235B01E018FEF76FFF28700120B3E7BF
:10ACD000204B4401E018111C0422FEF7C5FF01209F
:10ACE000AAE7440180235B010834E018FEF75CFF0B
:10ACF00088235B01061CE018FEF756FF3602801918
:10AD00002880012098E744010834201CFEF74CFFFE
:10AD10000F231840012810D1BC239B01E018FEF737
:10AD200043FF2880012087E7FFF71EF828800120D5
:10AD300082E7FE2080E7FF207EE7FB207CE7C0461D
:10AD4000A0520100FC0A0010F40A001008160000CE
:10AD500008150000080C00007047C0467047C04648
:10AD60007047C0467047C0460078C0B27047C046C2
:10AD700001707047002070477047C0467047C0465A
:10AD80007047C046002805D0002903D0034B596105
:10AD90001861704702490348F8E7C04624010010D3
:10ADA00065AD000061AD000010B5074B1A88940531
:10ADB00000D4FEE7002804D0002902D0D9619861B0
:10ADC00010BD02490248F9E72401001079AD0000E6
:10ADD00075AD000010B5074B1A88940500D4FEE746
:10ADE000002804D0002902D05962186210BD02491F
:10ADF0000248F9E72401001081AD00007DAD00009C
:10AE000038B50C1C052800D98CE0474B80001B5836
:10AE10009F46D82009784001FEF7F6FE6188C820D9
:10AE2000090A4001FEF7F0FED0204001A178FEF7AC
:10AE3000EBFE002040B238BDD8204001FEF7B4FE42
:10AE40002070C8204001FEF7AFFE051CD020400155
:10AE5000FEF7AAFE2D02451965800020EAE7902042
:10AE600000010622FEF73EFF211C80200E3140002B
:10AE70000422FEF737FF211CA0200A31C000042263
:10AE8000FEF730FFF02000010422A11DFEF72AFF8B
:10AE9000A27C264B00201A70E27C5A70227D9A70A8
:10AEA000627DDA70A27D224B1A70C3E79020000108
:10AEB0000622FEF7D9FE211C80200E31400004221C
:10AEC000FEF7D2FE211CA0200A31C0000422FEF7AA
:10AED000CBFEF02000010422A11DFEF7C5FE134B9E
:10AEE00000201A78A2745A78E2749A782275DB7876
:10AEF00063750F4B1B78A3759CE70C783A23221CD3
:10AF00009A430FD10020FEF74FFE0443E1B2002028
:10AF1000FEF77AFE00208DE70020FEF745FE207048
:10AF2000002087E7FF2085E7D4520100100B0010B6
:10AF30000C0B0010F0B5041C87B090200001062215
:10AF40000E1C04A9FEF790FE8020400001A90422F7
:10AF5000FEF78AFEA020C00002A90422FEF784FEAC
:10AF6000F0200422000103A9FEF77EFE80210020CC
:10AF7000FEF74AFE0020FEF717FE9020000104A90C
:10AF80000622FEF7AFFE8020400001A90422FEF752
:10AF9000A9FEA020C00002A90422FEF7A3FEF02013
:10AFA000000103A90422FEF79DFE002C3DD023786A
:10AFB0005AB2102A00DD79E062789B18DBB25AB2EF
:10AFC000102A00DD72E0A2789B18DBB25AB2102A78
:10AFD00000DD6BE0E2789B18DBB25AB2102A65DC28
:10AFE00022799B18DBB25AB2102A5FDC62799B1877
:10AFF000DBB25AB2102A59DCA2799B18DBB25AB2E2
:10B00000102A53DCE2799B185BB2102B4EDC271C14
:10B0100008370125F823E8005B012178C0180134C6
:10B02000FEF7F2FD0435BC42F4D1002E3AD033785D
:10B030005AB2102A3ADC72789B18DBB25AB2102A44
:10B0400034DCB2789B18DBB25AB2102A2EDCF278CC
:10B050009B18DBB25AB2102A28DC32799B18DBB27B
:10B060005AB2102A22DC72799B18DBB25AB2102A2B
:10B070001CDCB2799B18DBB25AB2102A16DCF279CA
:10B080009B185BB2102B11DC341C01250836F02311
:10B09000E8005B012178C0180134FEF7B5FD0435E6
:10B0A000B442F4D1002040B207B0F0BDFF20FAE76F
:10B0B00070B50C1C86B00F2800D953E1C84B800036
:10B0C0001B589F460B78012B00D14DE1102208251B
:10B0D0001826382000216378012B00D179E1E3782C
:10B0E000012B00D170E1A378012B00D1111CB820F5
:10B0F0008001FEF789FDB8208001FEF755FD7F2114
:10B100000140B8208001FEF77FFDB8208001FEF7E6
:10B110004BFD802149420143B8208001C9B2FEF7AE
:10B1200073FD002040B206B070BD0020FAE7B820E1
:10B1300080010D78FEF738FD430600D412E1382473
:10B14000A043C0B2012D00D114E138210143B82041
:10B150008001FEF759FDB8208001FEF725FD7F2113
:10B160000140B8208001FEF74FFDB8208001FEF7B6
:10B170001BFD802149420143B820C9B28001FEF77E
:10B1800043FDB8208001FEF70FFD0440604260419E
:10B190004042C0B2C6E7B8208001FEF705FD430675
:10B1A000DB0F237038231840202800D109E138280C
:10B1B00000D106E100236370021C103AD2B20023D2
:10B1C000102A07D8012393401A1C864B13405A1E9D
:10B1D0009341DBB20838C0B2A370182806D8012307
:10B1E0001A1C8240101C804A104200D10023E370D8
:10B1F000002097E77D4B00209A780A70DA784A7031
:10B200001A798A705A79CA709B790B7100234B7135
:10B2100088E7B8208001FEF7C7FC302303405A1EA0
:10B220009341237000207DE7B8208001FEF7BCFC2D
:10B23000012318402070002074E79020000104A929
:10B240000622FEF711FD8020400001A90422FEF72E
:10B250000BFDA020C00002A90422FEF705FDF0208E
:10B260000422000103A9FEF7FFFC80210020FEF765
:10B27000CBFC0020FEF798FC9020000104A90622D8
:10B28000FEF730FD8020400001A90422FEF72AFDD0
:10B29000A020C00002A90422FEF724FDF020000136
:10B2A00003A90422FEF71EFD00203BE7002900D180
:10B2B00091E00831201CFFF73DFE33E7A820400154
:10B2C000FEF772FC051CB8204001FEF76DFCF02370
:10B2D00000021D4045192580002023E70C88A82086
:10B2E000F02121404001FEF78FFCB8204001210AE7
:10B2F000FEF78AFC002015E70C88B020E1B240017F
:10B30000FEF782FCC0204001210AFEF77DFC0020F0
:10B3100008E7B0204001FEF747FC051CC0204001B3
:10B32000FEF742FC0002451925800020FAE6098854
:10B330009820090A4001FEF767FCA020400121780F
:10B34000FEF762FC0020EDE698204001FEF72CFCA1
:10B35000051CA0204001FEF727FC2D02401920808B
:10B360000020DFE6FF20DDE6502248255826782021
:10B370004021B0E630210143B8208001FEF744FCB3
:10B38000B8208001FEF710FC7F210140B820800129
:10B39000FEF73AFCB8208001FEF706FC8021494206
:10B3A0000843C1B2B8208001FEF72EFCB82080010E
:10B3B000FEF7FAFB30231840434258414042C0B2E6
:10B3C000B0E601236370F7E6A378012B05D0291CB2
:10B3D0008DE6011C8BE600216CE7311C87E6C04638
:10B3E000EC520100010101000100010124010010E3
:10B3F00000487047140B0010F8B55F4656464D469E
:10B400004446F0B45B4C5C490025A4231922601D1E
:10B41000A570E57025718846238006F0C7FE0423D9
:10B42000E3772023E554C0262723E654A8239A4631
:10B4300050462823E0540B212923E15464272A2372
:10B44000E7548B46081C2C235146E1542D2301223E
:10B45000E0542F212E2022548946FF208446011CCF
:10B4600048462154302021543121894648466146BE
:10B4700021543220255433202254342025542B27A4
:10B4800035202654E65550463626A05559463720D5
:10B49000215465203821605478204042392160547D
:10B4A0003A261321A1553B26A0553C2021543D218D
:10B4B000655418203E21655440423F2160540320CA
:10B4C0004021605441216554422165544321655413
:10B4D000442163544521A277635446216354472194
:10B4E00063544823E55425494923E5544A23E1524E
:10B4F000012399464C23E25208264E23E6544F235B
:10B50000E554484650231C21E05488445123201C14
:10B51000E55441460A22523006F048FE201C4146BE
:10B520000A225C3006F042FE6623E5546723E554A8
:10B530006823E6546923E654201C6A23E65400215C
:10B540006B2332226C30E65406F034FE4A469E23CA
:10B55000E2549F23E754A023E754A123E754A223F6
:10B56000E554A323E5543CBC90469946A246AB461D
:10B57000F8BDC046140B00102C53010000C2FFFFA1
:10B5800010B50C4C0120211CA422FCF7E7FA2388FB
:10B59000002B06D1FFF730FF0120211CA422FCF76D
:10B5A000FFFA0123A3770423E37700222023E25448
:10B5B00010BDC046140B001070B5064C3425665DF6
:10B5C00000236355211CA4220120FCF7E9FA6655EB
:10B5D00070BDC046140B001008B506F0E7FD08BDAD
:10B5E00008B506F0E3FD08BD38B5154C051C201C58
:10B5F000291C0622213006F0D9FD201CA91D042299
:10B60000273006F0D3FD291C201C0E3104222B30DC
:10B6100006F0CCFD291C201C0A3104222F3006F034
:10B62000C5FD291C201C12310422683006F0BEFD25
:10B63000AA7D013A531E9A416623E25438BDC046A2
:10B64000140B001038B5154D0622291C2131041C9D
:10B6500006F0ACFD291CA01D2731042206F0A6FD32
:10B66000291C201C2B3104220E3006F09FFD291CC2
:10B67000201C2F3104220A3006F098FD291C201CC2
:10B6800004226831123006F091FD6623EB5C5A42C9
:10B6900053410222D31AA37538BDC046140B0010C3
:10B6A00008B504499020000121310622FEF71AFB5B
:10B6B00008BDC046140B001010B5194C86B0211CF3
:10B6C00021316846062206F071FD211C68462731AB
:10B6D0000422063006F06AFD211C68462B31042244
:10B6E0000E3006F063FD211C68462F3104220A301B
:10B6F00006F05CFD211C684604226831123006F019
:10B7000055FD6623E35C69465A4253410222D31A2F
:10B7100000206A469375FFF773FB06B010BDC04664
:10B72000140B001008B5011C02480622213006F057
:10B730003DFD08BD140B0010BFF34F8F024A034BB1
:10B74000DA60BFF34F8FFEE70400FA0500ED00E07A
:10B75000F0B54D4644465F465646F0B4E1B0141C81
:10B76000051C8946FFF744FE04AA80460B21281CCD
:10B77000FFF750FAA27968466779068A12023A43BF
:10B78000964206D061B03CBC90469946A246AB4674
:10B79000F0BD6B4612330093062205AB281C06A9A8
:10B7A000FFF7D0F863785AB2002A3DDB46462136CF
:10B7B00006A8311C062207F07BFB0028E2D15623A5
:10B7C0005B42637155232371A071311C062208A8C6
:10B7D00006F0ECFC6846A4222630414606F0E6FC62
:10B7E00063785AB2002A5EDB211C072233A806F0D8
:10B7F000DDFC6846D33008A9AA2206F0D7FCA3785E
:10B80000002B04D14846FF21042206F0D3FC484611
:10B81000437902791B0213430093281C33A9B122F8
:10B820004B46FEF7DDFFADE77F22694613400A8AEB
:10B83000002ABBD09708BE0071427141C9B2BB4615
:10B8400000292ED1032A2CD91902194318040843C0
:10B850001F0638438446002006A9039008686746FF
:10B86000474080C1039F01370397BFB2BB45F5D85E
:10B87000B2429BD006AFB919087858400870711CC5
:10B8800089B28A4292D97918087802365840B6B2FD
:10B890000870B2428AD906A88619327853403370AC
:10B8A00084E70026E6E77F261E403002320430435C
:10B8B00033061043184332A908AB1A68424004C348
:10B8C0009942FAD10B786A467340C9320B701378EB
:10B8D0005E40167088E7C046F0B54D4644465F4668
:10B8E0005646F0B4674C051CA5448946141CFFF766
:10B8F0007FFD04AA80460B21281CFFF78BF9A27953
:10B9000068466779068A12023A43964208D08F2326
:10B910009B009D443CBC90469946A246AB46F0BD78
:10B920006B4616330093BB2206AB281C5FA9FFF7BA
:10B9300009F863785AB2002A57DB464621365FA8D9
:10B94000311C062207F0B4FA0028E0D168468430A2
:10B950004146FF30523108F067FA071ED7D16946D9
:10B960009431FF31A4224046FFF73AFE40460123BE
:10B9700083770423C3772023C754FFF71DFE562384
:10B980005B42637155232371311C0622A77107A8FE
:10B9900006F00CFC6846A4222230414606F006FC64
:10B9A00063785AB2002A62DB211C072232A806F013
:10B9B000FDFB6846CF3007A9AA2206F0F7FBA37863
:10B9C000002B04D14846FF21042206F0F3FB484631
:10B9D000437902791B021343009332A9B1224B46EB
:10B9E000281CFEF7FDFEFFF7A7FE7F2269461340E5
:10B9F0000A8A002AA1D09708BE0071427141C9B2DB
:10BA0000BB46002931D1032A2FD919021943180442
:10BA100008431F063843844600205FA90390086846
:10BA20006746474080C1039F01370397BFB2BB45BC
:10BA3000F5D8B24200D180E75FAFB9190878584015
:10BA40000870711C89B28A4200D876E779180878A4
:10BA500002365840B6B20870B24200D86DE75FA80F
:10BA6000861932785340337067E70026E4E77F2277
:10BA70001A40002307AFF95C5140F9540133AA2B57
:10BA8000F8D191E7C4FDFFFFF0B54D4644465F464F
:10BA90005646F0B4C5B006AC0A21221C051CFFF7BF
:10BAA000B9F82378002B11D0222B08D108AC281C20
:10BAB0000921221CFFF7AEF82388062B0DD845B0CC
:10BAC0003CBC90469946A246AB46F0BD281C0221DC
:10BAD000BC4A0023FEF726FAF1E70FAB0093281CBF
